{
  "_format": "hh-sol-artifact-1",
  "contractName": "SkillPayment",
  "sourceName": "contracts/Skilltoken.sol",
  "abi": [
    {
      "inputs": [],
      "stateMutability": "nonpayable",
      "type": "constructor"
    },
    {
      "anonymous": false,
      "inputs": [
        {
          "indexed": true,
          "internalType": "address",
          "name": "sender",
          "type": "address"
        },
        {
          "indexed": true,
          "internalType": "address",
          "name": "receiver",
          "type": "address"
        },
        {
          "indexed": false,
          "internalType": "uint256",
          "name": "amount",
          "type": "uint256"
        }
      ],
      "name": "PaymentReceived",
      "type": "event"
    },
    {
      "anonymous": false,
      "inputs": [
        {
          "indexed": true,
          "internalType": "address",
          "name": "receiver",
          "type": "address"
        },
        {
          "indexed": false,
          "internalType": "uint256",
          "name": "amount",
          "type": "uint256"
        }
      ],
      "name": "Withdrawal",
      "type": "event"
    },
    {
      "inputs": [
        {
          "internalType": "address",
          "name": "_provider",
          "type": "address"
        }
      ],
      "name": "getBalance",
      "outputs": [
        {
          "internalType": "uint256",
          "name": "",
          "type": "uint256"
        }
      ],
      "stateMutability": "view",
      "type": "function"
    },
    {
      "inputs": [],
      "name": "owner",
      "outputs": [
        {
          "internalType": "address",
          "name": "",
          "type": "address"
        }
      ],
      "stateMutability": "view",
      "type": "function"
    },
    {
      "inputs": [
        {
          "internalType": "address",
          "name": "_provider",
          "type": "address"
        }
      ],
      "name": "paySkillProvider",
      "outputs": [],
      "stateMutability": "payable",
      "type": "function"
    },
    {
      "inputs": [
        {
          "internalType": "address",
          "name": "",
          "type": "address"
        },
        {
          "internalType": "uint256",
          "name": "",
          "type": "uint256"
        }
      ],
      "name": "payments",
      "outputs": [
        {
          "internalType": "address",
          "name": "sender",
          "type": "address"
        },
        {
          "internalType": "uint256",
          "name": "amount",
          "type": "uint256"
        }
      ],
      "stateMutability": "view",
      "type": "function"
    },
    {
      "inputs": [],
      "name": "withdrawFunds",
      "outputs": [],
      "stateMutability": "nonpayable",
      "type": "function"
    }
  ],
  "bytecode": "0x608060405234801561001057600080fd5b50336000806101000a81548173ffffffffffffffffffffffffffffffffffffffff021916908373ffffffffffffffffffffffffffffffffffffffff160217905550610938806100606000396000f3fe60806040526004361061004a5760003560e01c806324600fc31461004f57806354a0fcb4146100665780638da5cb5b14610082578063ab63385c146100ad578063f8b2cb4f146100eb575b600080fd5b34801561005b57600080fd5b50610064610128565b005b610080600480360381019061007b919061061f565b61025b565b005b34801561008e57600080fd5b506100976103ec565b6040516100a4919061065b565b60405180910390f35b3480156100b957600080fd5b506100d460048036038101906100cf91906106ac565b610410565b6040516100e29291906106fb565b60405180910390f35b3480156100f757600080fd5b50610112600480360381019061010d919061061f565b610471565b60405161011f9190610724565b60405180910390f35b600061013333610471565b905060008111610178576040517f08c379a000000000000000000000000000000000000000000000000000000000815260040161016f9061079c565b60405180910390fd5b600160003373ffffffffffffffffffffffffffffffffffffffff1673ffffffffffffffffffffffffffffffffffffffff16815260200190815260200160002060006101c39190610552565b3373ffffffffffffffffffffffffffffffffffffffff166108fc829081150290604051600060405180830381858888f19350505050158015610209573d6000803e3d6000fd5b503373ffffffffffffffffffffffffffffffffffffffff167f7fcf532c15f0a6db0bd6d0e038bea71d30d808c7d98cb3bf7268a95bf5081b65826040516102509190610724565b60405180910390a250565b6000341161029e576040517f08c379a000000000000000000000000000000000000000000000000000000000815260040161029590610808565b60405180910390fd5b600160008273ffffffffffffffffffffffffffffffffffffffff1673ffffffffffffffffffffffffffffffffffffffff16815260200190815260200160002060405180604001604052803373ffffffffffffffffffffffffffffffffffffffff16815260200134815250908060018154018082558091505060019003906000526020600020906002020160009091909190915060008201518160000160006101000a81548173ffffffffffffffffffffffffffffffffffffffff021916908373ffffffffffffffffffffffffffffffffffffffff1602179055506020820151816001015550508073ffffffffffffffffffffffffffffffffffffffff163373ffffffffffffffffffffffffffffffffffffffff167f45fdc265dc29885b9a485766b03e70978440d38c7c328ee0a14fa40c76c6af54346040516103e19190610724565b60405180910390a350565b60008054906101000a900473ffffffffffffffffffffffffffffffffffffffff1681565b6001602052816000526040600020818154811061042c57600080fd5b9060005260206000209060020201600091509150508060000160009054906101000a900473ffffffffffffffffffffffffffffffffffffffff16908060010154905082565b6000806000905060005b600160008573ffffffffffffffffffffffffffffffffffffffff1673ffffffffffffffffffffffffffffffffffffffff1681526020019081526020016000208054905081101561054857600160008573ffffffffffffffffffffffffffffffffffffffff1673ffffffffffffffffffffffffffffffffffffffff168152602001908152602001600020818154811061051657610515610828565b5b906000526020600020906002020160010154826105339190610886565b91508080610540906108ba565b91505061047b565b5080915050919050565b50805460008255600202906000526020600020908101906105739190610576565b50565b5b808211156105b857600080820160006101000a81549073ffffffffffffffffffffffffffffffffffffffff0219169055600182016000905550600201610577565b5090565b600080fd5b600073ffffffffffffffffffffffffffffffffffffffff82169050919050565b60006105ec826105c1565b9050919050565b6105fc816105e1565b811461060757600080fd5b50565b600081359050610619816105f3565b92915050565b600060208284031215610635576106346105bc565b5b60006106438482850161060a565b91505092915050565b610655816105e1565b82525050565b6000602082019050610670600083018461064c565b92915050565b6000819050919050565b61068981610676565b811461069457600080fd5b50565b6000813590506106a681610680565b92915050565b600080604083850312156106c3576106c26105bc565b5b60006106d18582860161060a565b92505060206106e285828601610697565b9150509250929050565b6106f581610676565b82525050565b6000604082019050610710600083018561064c565b61071d60208301846106ec565b9392505050565b600060208201905061073960008301846106ec565b92915050565b600082825260208201905092915050565b7f4e6f2066756e647320617661696c61626c650000000000000000000000000000600082015250565b600061078660128361073f565b915061079182610750565b602082019050919050565b600060208201905081810360008301526107b581610779565b9050919050565b7f5061796d656e74206d7573742062652067726561746572207468616e20300000600082015250565b60006107f2601e8361073f565b91506107fd826107bc565b602082019050919050565b60006020820190508181036000830152610821816107e5565b9050919050565b7f4e487b7100000000000000000000000000000000000000000000000000000000600052603260045260246000fd5b7f4e487b7100000000000000000000000000000000000000000000000000000000600052601160045260246000fd5b600061089182610676565b915061089c83610676565b92508282019050808211156108b4576108b3610857565b5b92915050565b60006108c582610676565b91507fffffffffffffffffffffffffffffffffffffffffffffffffffffffffffffffff82036108f7576108f6610857565b5b60018201905091905056fea26469706673582212201497da81d7c69338e65ed2c9cd015f43d2bc9c72b6c80c7c2a16f6e5a73bc41564736f6c63430008130033",
  "linkReferences": {},
  "deployedLinkReferences": {}
}